:101147007590FFC2A0D2A1D2A2AF90C2A20544E57A
:0E11570044D39432748094805004EF20E7E972
:011165002267
:10120100AE07121147C2A0C2A18E90D2A2C2A222E1
:06119E0014F912067CFFAB
:1011A400AE07121147D2A0C2A18E90D2A2C2A2222F
:1011C9007F381212017F0C1212017F061212017F61
:0411D90001021201FC
:1011DD00AE07ED6005EE24C08001EE4480FF1212D3
:0211ED000122DD
:101125008B418A4289431211DDAB41AA42A9431280
:10113500067C600D0543E5437002054212119E8051
:02114500E8229E
:06104E008F088D098B0ADA
:10105400E4FDEDC39408748094805030E50A244084
:10106400FFE433FEED2403FCEFA804088006CEA2BF
:10107400E713CE13D8F8FF121201AB0B050DE50DE3
:10108400AA0C7002050C12119E0D80C6AD09AF08A2
:081094001211DDAF0A0211A4E4
:0A0E33008E418F428B438A448945AB
:100E3D00E4F546F547C3E54164809480501CC3E456
:100E4D009542F542E49541F5410545E545700205AC
:100E5D004414F9742D1206C20547AE41AF427C0011
:100E6D007D0A1206D4ED2430FFAE46054674482E99
:100E7D00F8A607AE41AF427C007D0A1206D48E4122
:100E8D008F42D3E5429400E5416480948050CBE5D8
:100E9D00462547F547AF461546D3EF940074809429
:100EAD0080401B74482546F8E6FFAB430545E545F4
:100EBD00AA447002054414F9EF1206C280D7AB4361
:0A0ECD00AA44A945E41206C2AF478B
:010ED70022F8
:060F64008B0E8A0F8910BC
:100F6A00EFC4540FFED3940974809480500EEE247B
:100F7A0030FD0510E5107014050F8010EE2437FDC2
:100F8A00AB0E0510E510AA0F7002050F14F9ED1249
:100F9A0006C2EF540FFED39409748094805012EE67
:100FAA002430FFAB0E0510E510AA0F7014050F8050
:100FBA0010EE2437FFAB0E0510E510AA0F700205DC
:100FCA000F14F9EF1206C2AB0EAA0FA910E402061B
:010FDA00C254
:10118500D3EF9401EE9400400F7D027CEFDCFEDD91
:08119500FCEF1F70EB1E80E867
:01119D00222F
:081211007F027E27DEFEDFFCF8
:0112190022B2
:05122A00007F1BDFFE48
:01122F00229C
:07122300D2B3C2B4D2B52220
:100FDB00E4FEFDC2B3C2B4D2B500D2B400C2B4D2E7
:100FEB00B500D2B400C2B4EF7004C2B58002D2B562
:100FFB0000D2B400C2B4D2B5E4FFEFC3940874803E
:10100B0094805012D2B400C2B4EE25E0FE30B5038A
:10101B004306010F80E4E4FFEFC3940874809480CF
:10102B005012EDC313FD30B503430580D2B400C29B
:10103B00B40F80E4D2B4D2B3D2B5EEB50502FF2221
:02104B007F0024
:01104D002280
:10109C00513A20202020202063632F730051733A93
:1010AC0020202020206363004C3A00252E3266005D
:1010BC00252E31660045525200302E3020000000A3
:0D10CC000000000000000000000000000017
:100C1200E4F525F524F523F522F526F52778287C39
:100C220000FD7BFF7A1079CAFE7F05120656E4F5B5
:100C32002DF52EF52FF530F534F533F532F5317803
:100C4200357C00FD7BFF7A1079CFFE7F05120656B8
:100C5200753A64783B7C007D007BFF7A1079D47E04
:100C6200007F05120656754001C2001211EF1212E2
:100C7200231211C91211B4C2B0D2B17F0A7E00127E
:100C820011857BFF7A10799CE4FDFF1211257BFF11
:100C92007A1079A97D01E4FF1211257BFF7A107980
:100CA200B47D017F0B1211257F01120FDB8F26EF1E
:100CB200252EF52EE4352DF52D0527D3E5279409AC
:100CC20074809480406DE4F527AC2DAD2EEC1203B8
:100CD2002A7BCD7ACC79CC783D1201061203638E41
:100CE2002F8F30E4F52DF52EAC2FAD30EC12032A08
:100CF200E4FBFA7980784312020FE4FBFA79A078D8
:100D0200401201068F258E248D238C227544FF7597
:100D120045107546B78F4A8E498D488C477B007ABD
:100D22000079281207FF7B007A007928E4FD7F030F
:100D3200121125300A44C20AAF34AE33AD32AC319F
:100D4200AB25AA24A923A8221200158F348E338D35
:100D5200328C317544FF7545107546BC8F4A8E49F9
:100D62008D488C477B007A0079351207FF7B007A29
:100D72000079357D017F03121125AC3AE412032F6D
:100D8200AB34AA33A932A8311202AC60134011C2AB
:100D9200B1D2B07BFF7A1079C17D017F0D1211258E
:100DA200E5126034243F601D24F9600E146024248F
:100DB200097022754001740A800575400174F62598
:100DC2003AF53A8010754002E4F534F533F532F520
:100DD200318002B200E4F512E54064017033F5405F
:100DE200AF3AFEFB7A00793B120E33EFC3940374E1
:100DF200809480500BAE070F743B2EF8762080EB68
:100E0200743B2FF8E4F6FB7A00793B7D017F0D807D
:100E120012E5406402700FF5407BFF7A1079C57DC0
:100E2200017F03121125200003020CAAC20A020D3F
:010E3200A21D
:05121A00C10A011100F2
:1011B4005389F0438901758AF0758CD8C28DD2A900
:0511C400D2AFD28C2225
:03000B00021100DF
:04110000C0E0C0D0BB
:10110400C28E758AF0758CD80511C3E51194647488
:0C1114008094804005751100D20AD28E34
:05112000D0D0D0E03248
:03121F00011200B9
:1011EF0090BFFFE4F07434F074D1F0D2A8D288D25B
:0211FF00AF221D
:0300030002116681
:10116600C0E0C083C08290BFFF7440F0903FFFE0B4
:0F117600F51290BFFF74D1F0D082D083D0E03259
:10000E000203CFE86480F8E933E83360110460F04E
:10001E00ED33EC337009E8FCE9FDEAFEEBFF220458
:10002E0060DED3EB9FEA9EE99DE8C2E78CF0C2F753
:10003E0095F0400CE8CCF8E9CDF9EACEFAEBCFFB1F
:10004E0012039A85D0F05804700320D5B3E80470DB
:10005E00075002B2D50203D992D5EC0460F7E4CC76
:10006E00C0E0C398F8603B94186008400DD0E0FBE8
:10007E000203B1E4FBFAC9FC8028E830E406E4C9C7
:10008E00FBE4CAFCE830E305E4C9CACBFCE854073C
:10009E006010F8C3E913F9EA13FAEB13FBEC13FC47
:1000AE00D8F130F52FC3E49CFCEF9BFFEE9AFEEDEA
:1000BE0099FDD0E0FBEF4E4D4C701222DB03020394
:1000CE00D6EC2CFCEF33FFEE33FEED33FDED30E7D7
:1000DE00EB0203B1EF2BFFEE3AFEED39FDD0E0FB64
:1000EE0050130BBB00030203D9ED13FDEE13FEEF0D
:0800FE0013FFEC13FC0203B137
:10010600EC4D6011E8497017ED33EC3304600DE4F3
:10011600FCFFFEFD22E933E8330470F80203CF1238
:10012600039A58046009E4CC248150062850090239
:1001360003D92840030203D6C0E0EB4A7044B980D5
:1001460006D0E0FB0203C5EF4E701CBD8008EBFF36
:10015600EAFEE9FD80EBE98DF0A4FEE5F00201EF91
:10016600E9CDF9EAFEEBFFEF89F0A4FCE5F0CE89D4
:10017600F0A42EFFE435F0CD89F0A42DFEE435F091
:100186008067EF4E7005BD80D780C3EF8BF0A4ACBF
:10019600F0EE8BF0A42CFCE435F0F8EF8AF0A42CFA
:1001A600E5F038FCE433CB8DF0A42CFCE5F03BF80D
:1001B600EE8AF0A42CFCE5F038F8E433CF89F0A4FD
:1001C6002CFCE5F038CF3400CE89F0A42FFFE5F003
:1001D6003EFEE433C98DF0A42EFEE5F039CD8AF05B
:1001E600A42FFFE5F03EFEE43DFD33D0E0FB5007D3
:1001F6000BBB000F0203D9EC2CFCEF33FFEE33FEF2
:06020600ED33FD0203B11F
:10020C000203D9EC5D046005E8590470030203CFC6
:10021C0012039A580460F6EC4860F2EC7004FDFE90
:10022C00FF22C860DB2481C85009C39860025006C5
:10023C000203D69850CAF582E9294B4A7005AB8265
:10024C000203C575F0007C1A7880C3EF9BEE9AED23
:10025C0099400DC3EF9BFFEE9AFEED99FDE842F03D
:10026C00DC23ACF0D0E0FFD0E0FED0E0FDAB822090
:10027C00E7101BEB60BAEC2CFCEF33FFEE33FEED1A
:10028C0033FD0203B1E803F830E705C0F075F00068
:10029C00EF2FFFEE33FEED33FD40B830E7C280AAFE
:1002AC0074F8CC6480CCC86480C8F58204604FC3F9
:1002BC00EB9FF5F0EA9E42F0E99D42F0E89C45F098
:1002CC00603C501DE5825FFFE582D313CB5BCBF422
:1002DC002B5582FB50280ABA002409B9002008804B
:1002EC001DE5825BFBE582D313CF5FCFF4C3132FE5
:1002FC005582FF50090EBE00050DBD00010CC3EB6D
:10030C009FF5F0EA9E42F0E99D42F0E89C45F060D2
:09031C0007CC4820E701B3EC22F4
:1003250075F020800E75F010800575F0087D007E53
:10033500007F003392D530D50312070AEC33401005
:10034500EF33FFEE33FEED33FDEC33FCD5F0ED225C
:0E035500E5F0247EA2D513CC92E7CDCEFF2298
:10036300EDD2E7CD33EC3392D524814006E4FFFE92
:10037300FDFC22FCE4CFCECDCC24E0501174FF80F1
:10038300EDC3CC13CCCD13CDCE13CECF13CF04708E
:07039300F030D5DE02070A7D
:1007A300E5582444F8E60558227841300802784495
:1007B300E475F00112071802067C2001EB7F2ED2AC
:1007C300018018EF540F2490D43440D4FF30050B2C
:1007D300EF24BFB41A0050032461FFE559600215EA
:1007E30059055CE55C7002055B30080D7841E475E2
:1007F300F001120718EF0206C20210D97403D208DF
:100803008003E4C208F5588B418A428943E4F559D1
:10081300F55BF55CE55960077F201207DE80F5750F
:100823005AFFC202C201C203C204C206C207C209FE
:100833001207ACFF700D3008057F001207EFAF5CA5
:10084300AE5B22B4255FC2D5C2051207ACFF24D02C
:10085300B40A00501A75F00A785930D50508B6FF66
:100863000106C6A426F620D5047002D20480D9243A
:10087300CFB41A00EF5004C2E5D205020ADCD2025B
:1008830080C6D20180C0D20380BCD2D580BAD20642
:1008930080B47F201207DE2003077401B55900409E
:1008A300F11207A3FF1207DE020817D209D207804D
:1008B300951207A3FB1207A3FA1207A3F94A4B7079
:1008C3000679D37A0B7BFF20032EE559602A7E003D
:1008D3008E8275830012069560060EEE655A70F0DF
:1008E300C2D5EBC0E0EAC0E0E9C0E0EE120B3CD0B9
:1008F300E0F9D0E0FAD0E0FB12067CFF60AAEBC07F
:10090300E0EAC0E0E9C0E01207DED0E02401F9D05C
:10091300E03400FAD0E0FBE55A0460DCD55AD98014
:1009230087D20380A2120B1F60F7E55A70010412ED
:1009330003E4A95A600DE55A600914F55A120BC66F
:10094300EF60F3EA30E702F404C3995077EAF42541
:100953005A0430E701E404F55A800D120B1F60C1FD
:10096300EA055A255A1203E4EA7857F630E701E418
:10097300255A04D55A0420060114120B3CE4C0E0A6
:10098300120BC67857E6601320E70714F61207C662
:10099300802204F6D0E014C0E07F001207C6E55AB7
:1009A30060071207BD155A800B3006031207BDD02E
:1009B300E0020817D0E00480C5120B1F60A0E55ABF
:1009C300041203E47857EAF6E55A200602600104AC
:0509D3002404120B3C9E
:1009D80074FF04C0E0120BC61207C6E55A200602CF
:1009E80060031207BDD0E0B55AE87F451207D078FA
:1009F80057E67F2B30E7047F2DF404C0E01207DEB2
:100A0800D0E075F00A84C0F01207C7D0E01207C71B
:100A1800020817791080027908C207C2098008D233
:100A2800D5790A8004790AC2D5E55A047002F55AC4
:100A3800E4FAFDFEFF1207A3FC7B0820021312074D
:100A4800A3FD7B1030010A1207A3FE1207A3FF7B48
:100A580020EC3382D592D55013C3E43001069FFFB2
:100A6800E49EFEE42002039DFDE49CFCE4CBF8C276
:100A780002EC700CCFCECDCCE824F8F870F38017D8
:100A8800C3EF33FFEE33FEED33FDEC33FCEB33FB0A
:100A9800994002FB0FD8E9EB300205F8D0E0C448D2
:100AA800B202C0E00AEC4D4E4F78207B0070C2EADB
:100AB800B55A0040BCC0E0120B3ED0F0D0E0200296
:100AC80004C4C0E0C4B202C0F01207C7D0F0D5F029
:100AD800EB02081712072808B4530A1B5808854C5C
:100AE8000881420A1F4F0A27440A2749089A430ADD
:100AF8002D55095E4609BC450928470BF35008895E
:100B08002D088D2E08B02B08912308AE200BDC2A67
:100B1800084948000008A8E55AB4FF03755A0612A8
:100B280007A3FC1207A3FD1207A3FE1207A3FF7871
:100B380050020413790AA2D5200414300609B9100A
:100B4800020404B9080104A2D520070250010420B8
:100B580003689203B559005034C0E07F203004196F
:100B68007F30A20372077206500F120B95C203C2A0
:100B780007C206C2097F30800F300603E9C0E012C1
:100B880007DE300603D0E0F9D0E0B559CC300617BF
:100B98007F30B9100C1207DE7F583005077F788048
:100BA80003B908031207DE3003057F2D0207DE7F35
:100BB800202009F87F2B2007F322920380CF7F00A3
:100BC800B4070050052450F8E6FF22286E756C6CB7
:100BD8002900D2021207A33002F8C202785930D590
:100BE8000108F60208492D504349581207A3240367
:100BF800B405004001E4900BEE931207CF743A124B
:0A0C080007CFD204755904020A1B3D
:10039A00E9D2E7C933E833F892D5EDD2E7CD33ECA9
:0703AA0033FC5002B2D52222
:1003B100EC30E7100FBF000C0EBE00080DBD0004AD
:1003C1000BEB6014A2D5EB13FCED92E7FD2274FF59
:1003D100FCFDFEFF22E480F8A2D574FF13FC7D80B2
:0303E100E480EFC6
:1003E400F920E72824F950037907E4F42402FB18E0
:1003F400DBFDE624FB5014E9600DE4F618E604F690
:0F040400B40A08E4F6D9F57401F60A22C2D5222B
:10041300ED33EC3392D5FA602AB4FF33EDC2E77BB8
:10042300FF60067A047938E4227A04794120D504FE
:100433007A04793C224E614E002B494E46002D49E9
:100443004E4600E47A08F608DAFC7B00740722E8DB
:10045300C0E0ECC0E0EDC0E0EEC0E0EFC0E0EA7564
:10046300F010A4CAABF075F04DA42BFBE435F0FCFF
:10047300EA2410FAEB34C5FBEC34D9FCEDC2E7FFF8
:1004830075F056A4F42411C5F0F434C58FF0A42AF2
:10049300E5F03BE43CF620E714120546D0E0FFD03C
:1004A300E0FED0E0FDD0E0FC12020F8014F4041251
:1004B3000546D0E0FFD0E0FED0E0FDD0E0FC120125
:1004C30006D0E0F8E6FAEDD2E7CD33EC332482FB35
:1004D300E4C3CF33CFCE33CECD33CD33DBF37B0782
:1004E30075F00A846004F6081B0AE5F0F6088FF03D
:1004F300740AA4FFACF08EF0740AA42CFEACF05086
:10050300010C8DF0740AA42CFDE435F0F608DBDE53
:0305130074072248
:100516003F8000004120000042C80000447A0000ED
:10052600461C400047C35000497424004B1896806F
:100536004CBEBC205A0E1BCA6753C21C749DC5AE66
:10054600FB60065407601C2323120574EB543860C5
:100556000912056012056F120106ECF8EDF9EEFAC4
:10056600EFCB22EB12056F80F1543803241C900563
:1005760016FE93FC0EEE93FD0EEE930ECE93FF2227
:03000000020ED815
:0C0ED800787FE4F6D8FD75815C020F1FE6
:10058600E709F608DFFA8046E709F208DFFA803E57
:1005960088828C83E709F0A3DFFA8032E309F60844
:1005A600DFFA8078E309F208DFFA807088828C83AC
:1005B600E309F0A3DFFA806489828A83E0A3F60860
:1005C600DFFA805889828A83E0A3F208DFFA804C3A
:1005D60080D280FA80C680D4806980F28033801011
:1005E60080A680EA809A80A880DA80E280CA80337A
:1005F60089828A83ECFAE493A3C8C582C8CCC583F2
:10060600CCF0A3C8C582C8CCC583CCDFE9DEE780C1
:100616000D89828A83E493A3F608DFF9ECFAA9F040
:10062600EDFB2289828A83ECFAE0A3C8C582C8CC96
:10063600C583CCF0A3C8C582C8CCC583CCDFEADEAF
:10064600E880DB89828A83E493A3F208DFF980CC11
:1006560088F0EF60010E4E60C388F0ED2402B4040A
:100666000050B9F582EB2402B4040050AF232345B1
:0606760082239005D673FB
:10067C00BB010689828A83E0225002E722BBFE027C
:09068C00E32289828A83E49322AF
:10069500BB010CE58229F582E5833AF583E022501A
:1006A50006E92582F8E622BBFE06E92582F8E22264
:0D06B500E58229F582E5833AF583E493227E
:1006C200BB010689828A83F0225002F722BBFE0117
:0206D200F32211
:1006D400C2D5EC30E709B2D5E4C39DFDE49CFCEE41
:1006E40030E715B2D5E4C39FFFE49EFE12074EC364
:1006F400E49DFDE49CFC800312074E30D507C3E45F
:060704009FFFE49EFE22AF
:0E070A00C3E49FFFE49EFEE49DFDE49CFC2200
:10071800FAE6FB0808E6F925F0F618E6CA3AF622E2
:10072800D083D082F8E4937012740193700DA3A360
:1007380093F8740193F5828883E473740293686074
:06074800EFA3A3A380DF74
:1010D900EFB40A07740D1210E4740A309811A89934
:1010E900B8130CC2983098FDA899C298B811F63077
:0710F90099FDC299F599224F
:100EE400020C12E493A3F8E493A34003F68001F206
:100EF40008DFF48029E493A3F85407240CC8C3330F
:100F0400C4540F4420C8834004F456800146F6DFDD
:100F1400E4800B010204081020408090121AE47E41
:100F2400019360BCA3FF543F30E509541FFEE493D2
:100F3400A360010ECF54C025E060A840B8E493A399
:100F4400FAE493A3F8E493A3C8C582C8CAC583CAC4
:100F5400F0A3C8C582C8CAC583CADFE9DEE780BE7C
:0112220000CB
:10074E00BC000BBE0029EF8DF084FFADF022E4CC8F
:10075E00F875F008EF2FFFEE33FEEC33FCEE9DEC58
:10076E00984005FCEE9DFE0FD5F0E9E4CEFD22ED9E
:10077E00F8F5F0EE8420D21CFEADF075F008EF2FE8
:10078E00FFED33FD4007985006D5F0F222C398FDD9
:05079E000FD5F0EA2276
:00000001FF
